{
  "_format": "hh-sol-artifact-1",
  "contractName": "VenusProtocol",
  "sourceName": "contracts/moonbeam/VenusProtocol.sol",
  "abi": [
    {
      "anonymous": false,
      "inputs": [
        {
          "indexed": false,
          "internalType": "uint256",
          "name": "listingId",
          "type": "uint256"
        },
        {
          "indexed": false,
          "internalType": "address",
          "name": "seller",
          "type": "address"
        },
        {
          "indexed": false,
          "internalType": "address",
          "name": "tokenAddress",
          "type": "address"
        },
        {
          "indexed": false,
          "internalType": "uint256",
          "name": "tokenId",
          "type": "uint256"
        },
        {
          "indexed": false,
          "internalType": "uint256",
          "name": "priceInNative",
          "type": "uint256"
        }
      ],
      "name": "NFTListed",
      "type": "event"
    },
    {
      "anonymous": false,
      "inputs": [
        {
          "indexed": false,
          "internalType": "uint256",
          "name": "orderId",
          "type": "uint256"
        },
        {
          "indexed": false,
          "internalType": "address",
          "name": "seller",
          "type": "address"
        }
      ],
      "name": "NftPurchaseCompleted",
      "type": "event"
    },
    {
      "anonymous": false,
      "inputs": [
        {
          "indexed": false,
          "internalType": "uint256",
          "name": "orderId",
          "type": "uint256"
        }
      ],
      "name": "NftPurchaseFailed",
      "type": "event"
    },
    {
      "anonymous": false,
      "inputs": [
        {
          "indexed": false,
          "internalType": "uint256",
          "name": "orderId",
          "type": "uint256"
        },
        {
          "indexed": false,
          "internalType": "uint256",
          "name": "foreignChainListingId",
          "type": "uint256"
        },
        {
          "indexed": false,
          "internalType": "uint256",
          "name": "wormholeChainId",
          "type": "uint256"
        },
        {
          "indexed": false,
          "internalType": "address",
          "name": "buyer",
          "type": "address"
        },
        {
          "indexed": false,
          "internalType": "uint256",
          "name": "pricePaidInNative",
          "type": "uint256"
        }
      ],
      "name": "NftPurchaseInitiated",
      "type": "event"
    },
    {
      "inputs": [],
      "name": "getListingIdCounter",
      "outputs": [
        {
          "internalType": "uint256",
          "name": "",
          "type": "uint256"
        }
      ],
      "stateMutability": "view",
      "type": "function"
    },
    {
      "inputs": [],
      "name": "getOrderIdCounter",
      "outputs": [
        {
          "internalType": "uint256",
          "name": "",
          "type": "uint256"
        }
      ],
      "stateMutability": "view",
      "type": "function"
    },
    {
      "inputs": [
        {
          "internalType": "address",
          "name": "tokenAddress",
          "type": "address"
        },
        {
          "internalType": "uint256",
          "name": "tokenId",
          "type": "uint256"
        },
        {
          "internalType": "uint256",
          "name": "nativePrice",
          "type": "uint256"
        }
      ],
      "name": "listNft",
      "outputs": [],
      "stateMutability": "nonpayable",
      "type": "function"
    },
    {
      "inputs": [],
      "name": "listingIdCounter",
      "outputs": [
        {
          "internalType": "uint256",
          "name": "",
          "type": "uint256"
        }
      ],
      "stateMutability": "view",
      "type": "function"
    },
    {
      "inputs": [
        {
          "internalType": "uint256",
          "name": "",
          "type": "uint256"
        }
      ],
      "name": "listings",
      "outputs": [
        {
          "internalType": "address",
          "name": "seller",
          "type": "address"
        },
        {
          "internalType": "address",
          "name": "tokenAddress",
          "type": "address"
        },
        {
          "internalType": "uint256",
          "name": "tokenId",
          "type": "uint256"
        },
        {
          "internalType": "uint256",
          "name": "wormholeChainId",
          "type": "uint256"
        },
        {
          "internalType": "uint256",
          "name": "priceInNative",
          "type": "uint256"
        },
        {
          "internalType": "bytes",
          "name": "signature",
          "type": "bytes"
        }
      ],
      "stateMutability": "view",
      "type": "function"
    },
    {
      "inputs": [
        {
          "internalType": "uint256",
          "name": "orderId",
          "type": "uint256"
        },
        {
          "internalType": "address",
          "name": "seller",
          "type": "address"
        },
        {
          "internalType": "bool",
          "name": "isSuccess",
          "type": "bool"
        }
      ],
      "name": "nftPurchaseCallback",
      "outputs": [],
      "stateMutability": "nonpayable",
      "type": "function"
    },
    {
      "inputs": [],
      "name": "orderIdCounter",
      "outputs": [
        {
          "internalType": "uint256",
          "name": "",
          "type": "uint256"
        }
      ],
      "stateMutability": "view",
      "type": "function"
    },
    {
      "inputs": [
        {
          "internalType": "uint256",
          "name": "",
          "type": "uint256"
        }
      ],
      "name": "orders",
      "outputs": [
        {
          "internalType": "uint256",
          "name": "orderId",
          "type": "uint256"
        },
        {
          "internalType": "uint256",
          "name": "listingId",
          "type": "uint256"
        },
        {
          "internalType": "uint256",
          "name": "wormholeChainId",
          "type": "uint256"
        },
        {
          "internalType": "address",
          "name": "buyer",
          "type": "address"
        },
        {
          "internalType": "uint256",
          "name": "pricePaidInNative",
          "type": "uint256"
        },
        {
          "internalType": "enum VenusProtocol.OrderStatus",
          "name": "status",
          "type": "uint8"
        }
      ],
      "stateMutability": "view",
      "type": "function"
    },
    {
      "inputs": [
        {
          "internalType": "uint256",
          "name": "listingId",
          "type": "uint256"
        },
        {
          "internalType": "uint256",
          "name": "wormholeChainId",
          "type": "uint256"
        }
      ],
      "name": "purchaseNFT",
      "outputs": [
        {
          "internalType": "uint256",
          "name": "orderId",
          "type": "uint256"
        }
      ],
      "stateMutability": "payable",
      "type": "function"
    }
  ],
  "bytecode": "0x608060405234801561001057600080fd5b50610663806100206000396000f3fe6080604052600436106100965760003560e01c8063a85c38ef11610069578063be3744231161004e578063be3744231461018f578063c922b17c146101a5578063de74e57b146101c557600080fd5b8063a85c38ef1461010c578063ad4451a31461017c57600080fd5b80631931d35c1461009b578063231701e9146100bf57806328292a4f146100d557806374fc7733146100f7575b600080fd5b3480156100a757600080fd5b506003545b6040519081526020015b60405180910390f35b3480156100cb57600080fd5b506100ac60035481565b3480156100e157600080fd5b506100f56100f036600461043e565b6101f7565b005b34801561010357600080fd5b506002546100ac565b34801561011857600080fd5b5061016a610127366004610483565b6001602081905260009182526040909120805491810154600282015460038301546004840154600590940154929391926001600160a01b03909116919060ff1686565b6040516100b69695949392919061049c565b6100ac61018a3660046104f7565b610274565b34801561019b57600080fd5b506100ac60025481565b3480156101b157600080fd5b506100f56101c0366004610519565b6102e4565b3480156101d157600080fd5b506101e56101e0366004610483565b610355565b6040516100b69695949392919061054c565b801561024457604080518481526001600160a01b03841660208201527f7981190ed176314aeac9bcfeef17987b901d0e614ea542487b341c451000dc1891015b60405180910390a1505050565b6040518381527f1855835a910bf08f0d7e03957c4c8f68d92ea4b4d478f68fae44cf7825a10fee90602001610237565b600254604080519182526020820184905281018290523360608201523460808201526000907f53135e58ec7d6234efa7b364a147166ce2b41dcb8424dc7d1cb63b870b71671c9060a00160405180910390a1600280549060006102d6836105cc565b909155506000949350505050565b600354604080519182523360208301526001600160a01b038516828201526060820184905260808201839052517fb0fe4922ac99799c17a4130d5c045ba2ecdf6e15b75b9ea84aaf0dc28724a42b9181900360a00190a16003805490600061034b836105cc565b9190505550505050565b6000602081905290815260409020805460018201546002830154600384015460048501546005860180546001600160a01b0396871697969095169593949293919261039f906105f3565b80601f01602080910402602001604051908101604052809291908181526020018280546103cb906105f3565b80156104185780601f106103ed57610100808354040283529160200191610418565b820191906000526020600020905b8154815290600101906020018083116103fb57829003601f168201915b5050505050905086565b80356001600160a01b038116811461043957600080fd5b919050565b60008060006060848603121561045357600080fd5b8335925061046360208501610422565b91506040840135801515811461047857600080fd5b809150509250925092565b60006020828403121561049557600080fd5b5035919050565b600060c0820190508782528660208301528560408301526001600160a01b0385166060830152836080830152600483106104e657634e487b7160e01b600052602160045260246000fd5b8260a0830152979650505050505050565b6000806040838503121561050a57600080fd5b50508035926020909101359150565b60008060006060848603121561052e57600080fd5b61053784610422565b95602085013595506040909401359392505050565b60006001600160a01b03808916835260208189168185015287604085015286606085015285608085015260c060a0850152845191508160c085015260005b828110156105a65785810182015185820160e00152810161058a565b5050600060e0828501015260e0601f19601f830116840101915050979650505050505050565b6000600182016105ec57634e487b7160e01b600052601160045260246000fd5b5060010190565b600181811c9082168061060757607f821691505b60208210810361062757634e487b7160e01b600052602260045260246000fd5b5091905056fea26469706673582212200ec56c83a48802ef1f5feb2dadc7855a8be7de5246c2a8c15f9ac70e26046f4564736f6c63430008140033",
  "linkReferences": {},
  "deployedLinkReferences": {}
}