{
  "_format": "hh-sol-artifact-1",
  "contractName": "Testing",
  "sourceName": "contracts/Testing.sol",
  "abi": [
    {
      "inputs": [
        {
          "internalType": "uint16",
          "name": "_chainId",
          "type": "uint16"
        },
        {
          "internalType": "address",
          "name": "wormhole_core_bridge_address",
          "type": "address"
        }
      ],
      "stateMutability": "nonpayable",
      "type": "constructor"
    },
    {
      "inputs": [
        {
          "internalType": "bytes32",
          "name": "sender",
          "type": "bytes32"
        },
        {
          "internalType": "uint16",
          "name": "_chainId",
          "type": "uint16"
        }
      ],
      "name": "addTrustedAddress",
      "outputs": [],
      "stateMutability": "nonpayable",
      "type": "function"
    },
    {
      "inputs": [
        {
          "internalType": "address",
          "name": "",
          "type": "address"
        }
      ],
      "name": "lastMessage",
      "outputs": [
        {
          "internalType": "string",
          "name": "",
          "type": "string"
        }
      ],
      "stateMutability": "view",
      "type": "function"
    },
    {
      "inputs": [
        {
          "internalType": "bytes32",
          "name": "",
          "type": "bytes32"
        },
        {
          "internalType": "uint16",
          "name": "",
          "type": "uint16"
        }
      ],
      "name": "myTrustedContracts",
      "outputs": [
        {
          "internalType": "bool",
          "name": "",
          "type": "bool"
        }
      ],
      "stateMutability": "view",
      "type": "function"
    },
    {
      "inputs": [
        {
          "internalType": "bytes",
          "name": "VAA",
          "type": "bytes"
        }
      ],
      "name": "processMyMessage",
      "outputs": [],
      "stateMutability": "nonpayable",
      "type": "function"
    },
    {
      "inputs": [
        {
          "internalType": "bytes32",
          "name": "",
          "type": "bytes32"
        }
      ],
      "name": "processedMessages",
      "outputs": [
        {
          "internalType": "bool",
          "name": "",
          "type": "bool"
        }
      ],
      "stateMutability": "view",
      "type": "function"
    },
    {
      "inputs": [
        {
          "internalType": "string",
          "name": "message",
          "type": "string"
        },
        {
          "internalType": "address",
          "name": "destAddress",
          "type": "address"
        },
        {
          "internalType": "uint16",
          "name": "destChainId",
          "type": "uint16"
        }
      ],
      "name": "sendMessage",
      "outputs": [],
      "stateMutability": "payable",
      "type": "function"
    }
  ],
  "bytecode": "0x60c06040526003805461ffff1916905534801561001b57600080fd5b50604051610f3f380380610f3f83398101604081905261003a91610054565b61ffff90911660a0526001600160a01b03166080526100a1565b6000806040838503121561006757600080fd5b825161ffff8116811461007957600080fd5b60208401519092506001600160a01b038116811461009657600080fd5b809150509250929050565b60805160a051610e726100cd60003960006104070152600081816101e401526105bc0152610e726000f3fe6080604052600436106100655760003560e01c806388ba16ab1161004357806388ba16ab146100ef578063b18dfd3d1461011f578063f2bc84631461014c57600080fd5b806306db21d51461006a57806323924aaa1461007f5780634d5c50aa146100cf575b600080fd5b61007d610078366004610766565b610192565b005b34801561008b57600080fd5b506100ba61009a3660046107de565b600160209081526000928352604080842090915290825290205460ff1681565b60405190151581526020015b60405180910390f35b3480156100db57600080fd5b5061007d6100ea36600461080e565b6101dd565b3480156100fb57600080fd5b506100ba61010a36600461085f565b60026020526000908152604090205460ff1681565b34801561012b57600080fd5b5061013f61013a366004610878565b6104c5565b6040516100c691906108ec565b34801561015857600080fd5b5061007d6101673660046107de565b600091825260016020818152604080852061ffff90941685529290529120805460ff19169091179055565b6003546101a89083908390869061ffff1661055f565b506003805461ffff169060006101bd836108ff565b91906101000a81548161ffff021916908361ffff16021790555050505050565b60008060007f00000000000000000000000000000000000000000000000000000000000000006001600160a01b031663c0fd8bde856040518263ffffffff1660e01b815260040161022e91906108ec565b600060405180830381865afa15801561024b573d6000803e3d6000fd5b505050506040513d6000823e601f3d908101601f191682016040526102739190810190610a96565b9250925092508181906102a25760405162461bcd60e51b815260040161029991906108ec565b60405180910390fd5b5060808301516000908152600160209081526040808320606087015161ffff16845290915290205460ff166103195760405162461bcd60e51b815260206004820152601860248201527f496e76616c696420656d697474657220616464726573732100000000000000006044820152606401610299565b61014083015160009081526002602052604090205460ff161561037e5760405162461bcd60e51b815260206004820152601960248201527f4d65737361676520616c72656164792070726f636573736564000000000000006044820152606401610299565b6000806000808660e0015180602001905181019061039c9190610bee565b9350935093509350306001600160a01b0316846001600160a01b0316146104055760405162461bcd60e51b815260206004820152601c60248201527f4e6f742074686520696e74656e6465642072656365697069656e7421000000006044820152606401610299565b7f000000000000000000000000000000000000000000000000000000000000000061ffff168361ffff161461047c5760405162461bcd60e51b815260206004820152601760248201527f4e6f742074686520696e74656e64656420636861696e210000000000000000006044820152606401610299565b6101408701516000908152600260209081526040808320805460ff191660011790556001600160a01b03851683529082905290206104ba8282610cef565b505050505050505050565b600060208190529081526040902080546104de90610c66565b80601f016020809104026020016040519081016040528092919081815260200182805461050a90610c66565b80156105575780601f1061052c57610100808354040283529160200191610557565b820191906000526020600020905b81548152906001019060200180831161053a57829003601f168201915b505050505081565b600080858533866040516020016105799493929190610daf565b60408051601f19818403018152908290527fb19a437e00000000000000000000000000000000000000000000000000000000825291506000906001600160a01b037f0000000000000000000000000000000000000000000000000000000000000000169063b19a437e906105f69087908690600190600401610def565b6020604051808303816000875af1158015610615573d6000803e3d6000fd5b505050506040513d601f19601f820116820180604052508101906106399190610e21565b979650505050505050565b634e487b7160e01b600052604160045260246000fd5b6040516080810167ffffffffffffffff8111828210171561067d5761067d610644565b60405290565b604051610160810167ffffffffffffffff8111828210171561067d5761067d610644565b604051601f8201601f1916810167ffffffffffffffff811182821017156106d0576106d0610644565b604052919050565b600067ffffffffffffffff8211156106f2576106f2610644565b50601f01601f191660200190565b600061071361070e846106d8565b6106a7565b905082815283838301111561072757600080fd5b828260208301376000602084830101529392505050565b6001600160a01b038116811461075357600080fd5b50565b61ffff8116811461075357600080fd5b60008060006060848603121561077b57600080fd5b833567ffffffffffffffff81111561079257600080fd5b8401601f810186136107a357600080fd5b6107b286823560208401610700565b93505060208401356107c38161073e565b915060408401356107d381610756565b809150509250925092565b600080604083850312156107f157600080fd5b82359150602083013561080381610756565b809150509250929050565b60006020828403121561082057600080fd5b813567ffffffffffffffff81111561083757600080fd5b8201601f8101841361084857600080fd5b61085784823560208401610700565b949350505050565b60006020828403121561087157600080fd5b5035919050565b60006020828403121561088a57600080fd5b81356108958161073e565b9392505050565b60005b838110156108b757818101518382015260200161089f565b50506000910152565b600081518084526108d881602086016020860161089c565b601f01601f19169290920160200192915050565b60208152600061089560208301846108c0565b600061ffff80831681810361092457634e487b7160e01b600052601160045260246000fd5b6001019392505050565b805160ff8116811461093f57600080fd5b919050565b805163ffffffff8116811461093f57600080fd5b805161093f81610756565b805167ffffffffffffffff8116811461093f57600080fd5b600082601f83011261098c57600080fd5b815161099a61070e826106d8565b8181528460208386010111156109af57600080fd5b61085782602083016020870161089c565b600082601f8301126109d157600080fd5b8151602067ffffffffffffffff8211156109ed576109ed610644565b6109fb818360051b016106a7565b82815260079290921b84018101918181019086841115610a1a57600080fd5b8286015b84811015610a7b5760808189031215610a375760008081fd5b610a3f61065a565b8151815284820151858201526040610a5881840161092e565b908201526060610a6983820161092e565b90820152835291830191608001610a1e565b509695505050505050565b8051801515811461093f57600080fd5b600080600060608486031215610aab57600080fd5b835167ffffffffffffffff80821115610ac357600080fd5b908501906101608288031215610ad857600080fd5b610ae0610683565b610ae98361092e565b8152610af760208401610944565b6020820152610b0860408401610944565b6040820152610b1960608401610958565b606082015260808301516080820152610b3460a08401610963565b60a0820152610b4560c0840161092e565b60c082015260e083015182811115610b5c57600080fd5b610b688982860161097b565b60e083015250610100610b7c818501610944565b908201526101208381015183811115610b9457600080fd5b610ba08a8287016109c0565b918301919091525061014083810151908201529450610bc160208701610a86565b93506040860151915080821115610bd757600080fd5b50610be48682870161097b565b9150509250925092565b60008060008060808587031215610c0457600080fd5b8451610c0f8161073e565b6020860151909450610c2081610756565b6040860151909350610c318161073e565b606086015190925067ffffffffffffffff811115610c4e57600080fd5b610c5a8782880161097b565b91505092959194509250565b600181811c90821680610c7a57607f821691505b602082108103610c9a57634e487b7160e01b600052602260045260246000fd5b50919050565b601f821115610cea57600081815260208120601f850160051c81016020861015610cc75750805b601f850160051c820191505b81811015610ce657828155600101610cd3565b5050505b505050565b815167ffffffffffffffff811115610d0957610d09610644565b610d1d81610d178454610c66565b84610ca0565b602080601f831160018114610d525760008415610d3a5750858301515b600019600386901b1c1916600185901b178555610ce6565b600085815260208120601f198616915b82811015610d8157888601518255948401946001909101908401610d62565b5085821015610d9f5787850151600019600388901b60f8161c191681555b5050505050600190811b01905550565b60006001600160a01b03808716835261ffff8616602084015280851660408401525060806060830152610de560808301846108c0565b9695505050505050565b63ffffffff84168152606060208201526000610e0e60608301856108c0565b905060ff83166040830152949350505050565b600060208284031215610e3357600080fd5b6108958261096356fea26469706673582212202ce7dde6193f39172cc9548d3b8e5452336cc503dfc1b5172276d180353ffb8f64736f6c63430008140033",
  "linkReferences": {},
  "deployedLinkReferences": {}
}