{
  "_format": "hh-sol-artifact-1",
  "contractName": "VenusConnector",
  "sourceName": "contracts/mulit-chain/VenusConnector.sol",
  "abi": [
    {
      "anonymous": false,
      "inputs": [
        {
          "indexed": false,
          "internalType": "uint256",
          "name": "listingId",
          "type": "uint256"
        },
        {
          "indexed": false,
          "internalType": "address",
          "name": "seller",
          "type": "address"
        },
        {
          "indexed": false,
          "internalType": "address",
          "name": "tokenAddress",
          "type": "address"
        },
        {
          "indexed": false,
          "internalType": "uint256",
          "name": "tokenId",
          "type": "uint256"
        },
        {
          "indexed": false,
          "internalType": "uint256",
          "name": "priceInNative",
          "type": "uint256"
        }
      ],
      "name": "NFTListed",
      "type": "event"
    },
    {
      "inputs": [],
      "name": "getListingIdCounter",
      "outputs": [
        {
          "internalType": "uint256",
          "name": "",
          "type": "uint256"
        }
      ],
      "stateMutability": "view",
      "type": "function"
    },
    {
      "inputs": [
        {
          "internalType": "address",
          "name": "tokenAddress",
          "type": "address"
        },
        {
          "internalType": "uint256",
          "name": "tokenId",
          "type": "uint256"
        },
        {
          "internalType": "uint256",
          "name": "nativePrice",
          "type": "uint256"
        }
      ],
      "name": "listNft",
      "outputs": [],
      "stateMutability": "nonpayable",
      "type": "function"
    },
    {
      "inputs": [],
      "name": "listingIdCounter",
      "outputs": [
        {
          "internalType": "uint256",
          "name": "",
          "type": "uint256"
        }
      ],
      "stateMutability": "view",
      "type": "function"
    }
  ],
  "bytecode": "0x608060405234801561001057600080fd5b506101bb806100206000396000f3fe608060405234801561001057600080fd5b50600436106100415760003560e01c80631931d35c14610046578063231701e91461005c578063c922b17c14610065575b600080fd5b6000545b60405190815260200160405180910390f35b61004a60005481565b6100786100733660046100f7565b61007a565b005b6000546040805191825233602083015273ffffffffffffffffffffffffffffffffffffffff8516828201526060820184905260808201839052517fb0fe4922ac99799c17a4130d5c045ba2ecdf6e15b75b9ea84aaf0dc28724a42b9181900360a00190a16000805490806100ed83610145565b9190505550505050565b60008060006060848603121561010c57600080fd5b833573ffffffffffffffffffffffffffffffffffffffff8116811461013057600080fd5b95602085013595506040909401359392505050565b60006001820161017e577f4e487b7100000000000000000000000000000000000000000000000000000000600052601160045260246000fd5b506001019056fea2646970667358221220473872b93ab58f9cabea1b00ec2695cbe22efa135ee112041edae149ca94595764736f6c63430008140033",
  "linkReferences": {},
  "deployedLinkReferences": {}
}